:020000040800F2
:10000000F8190020650200081D2E0008CF25000801
:100010003D2B0008EF0300080D3800080000000029
:10002000000000000000000000000000CD010008FA
:100030004D0700080000000011020008B53000085C
:100040007F0200087F0200087F0200087F0200088C
:100050007F0200087F0200087F0200087F0200087C
:100060007F0200087F0200087F0200087F0200086C
:100070007F020008110700087F0200087F020008C5
:100080007F0200087F0200087F0200087F0200084C
:100090007F0200087F0200087F0200087F0200083C
:1000A0007F0200087F0200087F0200087F0200082C
:1000B0005131000861310008713100087F020008E9
:1000C0007F0200087F0200087F0200087F0200080C
:1000D0007F0200087F0200087F0200087F020008FC
:1000E0007F0200087F0200087F0200087F020008EC
:1000F0007F0200087F0200087F0200087F020008DC
:100100007F0200087F020008813100087F0200089A
:100110007F0200087F0200087F020008913100087A
:100120007F0200087F0200087F0200087F020008AB
:1001300000F002F800F03AF80AA090E8000C8244BF
:100140008344AAF10107DA4501D100F02FF8AFF29C
:10015000090EBAE80F0013F0010F18BFFB1A43F0A5
:100160000103184790610000B0610000103A24BFFD
:1001700078C878C1FAD8520724BF30C830C144BF0C
:1001800004680C607047000000230024002500264E
:10019000103A28BF78C1FBD8520728BF30C148BFEA
:1001A0000B6070471FB51FBD10B510BD00F0EAF819
:1001B0001146FFF7F7FF03F0DFFE00F008F903B484
:1001C000FFF7F2FF03BC00F00BF90000224B1968A7
:1001D0000868B0E8F00F80F30988BFF36F8F4FF025
:1001E000000080F311884EF00D0E704700000000F3
:1001F00006480068006880F3088862B661B6BFF3FD
:100200004F8FBFF36F8F00DF00BF00BF08ED00E02E
:10021000EFF30980BFF36F8F0F4B1A6820E9F00FDF
:10022000106008B54FF0500080F31188BFF34F8F76
:10023000BFF36F8F04F00AFD4FF0000080F31188C8
:10024000BDE8084019680868B0E8F00F80F3098835
:10025000BFF36F8F704700BF1C000020EFF30580D5
:10026000704700000948804709480047FEE7FEE75D
:10027000FEE7FEE7FEE7FEE7FEE7FEE7FEE7FEE756
:1002800004480549054A064B704700004F310008F5
:1002900031010008F8130020F8190020F81500209B
:1002A000F815002010B5203AC0F00B80B1E81850C6
:1002B000203AA0E81850B1E81850A0E81850BFF450
:1002C000F5AF5FEA027C24BFB1E81850A0E81850EF
:1002D00044BF18C918C0BDE810405FEA827C24BF43
:1002E00051F8043B40F8043B08BF7047D20728BFD1
:1002F00031F8023B48BF11F8012B28BF20F8023B20
:1003000048BF00F8012B70474FF0000200B51346BC
:1003100094469646203922BFA0E80C50A0E80C5025
:10032000B1F12001BFF4F7AF090728BFA0E80C50D6
:1003300048BF0CC05DF804EB890028BF40F8042BCF
:1003400008BF704748BF20F8022B11F0804F18BF3C
:1003500000F8012B704770477047704710B500F0E8
:1003600009F8006810BD10B5044600F003F80460F9
:1003700010BD0000004870479413002000487047EB
:10038000941300207546FFF7F9FFAE460500694655
:10039000534620F00700854618B020B5FFF770FFE0
:1003A000BDE820404FF000064FF000074FF0000876
:1003B0004FF0000B21F00701AC46ACE8C009ACE8F7
:1003C000C009ACE8C009ACE8C0098D46704710B55B
:1003D0000446AFF300802046BDE81040FFF7EFBEB3
:1003E00001491820ABBEFEE726000200704700BF9F
:1003F000FEE700007FB54FF4004029494210CDE9E7
:1004000000120023274ACDE902102749274802F0AD
:100410004BFC4FF4805022494200CDE900120423E6
:10042000204ACDE9021022492048803002F03CFCED
:10043000102020492022CDE900120823194ACDE9D5
:1004400002101D491D4802F02FFC02201449012210
:10045000CDE900120C23134ACDE9021018491748C0
:10046000803002F021FC002411E04FF0804015495B
:10047000154ACDE9002102900C4901EBC41001EBB3
:10048000C411124B124A8D6E0121A847641C042C22
:10049000EBD303F06DFD0549091F08607FBD000027
:1004A000000C0140440300202402002054110020CD
:1004B0006C02002000100140B40200205412002001
:1004C000FC0200206666E63E0000B4420000FA45E9
:1004D000003E9C462DE9F84F03F04AFD854908602F
:1004E000084600684068C1F8140208460068806841
:1004F000C1F8180208460068B0F90E00002816DBA3
:1005000008460068B0F90E00B42810DC0968B1F99B
:100510000E0005F039FC0546774905F04DFC044610
:10052000764905F053FB7349C1F81C021FE071487E
:100530000068B0F90E00B42819DD6E480068B0F903
:100540000E00B0F5B47F12DC6A490968B1F90E10EB
:10055000C1F1B40005F018FC0546674905F02CFC14
:100560000446664905F032FB6249C1F81C02614845
:10057000D0F81C12624805F01FFC009005F098FAB4
:10058000824600225F4B05F09FF806460F46594809
:10059000D0F8140280F0004B5648D0F81812584694
:1005A00005F0D6FC8246584905F006FC009005F09F
:1005B0007FFA804632463B4604F0F6FD044604F0DE
:1005C000C1FD4C49C1F804020846D0F81C124C4841
:1005D00005F0F2FB009005F06BFA80460022494BD3
:1005E00005F072F882468B46424AD2F81812D2F8C9
:1005F000140205F0ADFC8146434905F0DDFB804661
:1006000005F056FA064652465B4604F0CDFD044618
:1006100004F098FD3749C1F808020846D0F81C12CA
:10062000374805F0C9FB009005F042FA80460022E9
:10063000344B05F049F882468B462E48D0F8140218
:1006400080F0004000902B48D0F81812009805F078
:100650005BFA81462C4905F0AFFB804605F028FA8D
:10066000064652465B4604F09FFD044604F06AFDD0
:100670002049C1F80C020846D0F81C12204805F0A9
:100680009BFB009005F014FA064600221D4B05F076
:100690001BF880468946174AD2F81812D2F814027D
:1006A00005F032FA0746184905F086FB064605F0C4
:1006B000FFF9044642464B4604F076FD824604F0BC
:1006C00041FD0C49C1F8100200240FE00F4951F818
:1006D000240005F03DFB05B20649091D01EBC410DD
:1006E00001EBC4118A6F29469047641C042CEDD39A
:1006F000BDE8F88F50110020DB0F49400000344363
:100700000000A04000B06B400000A0415413002046
:1007100010B5024800F01EF810BD0000D403002000
:1007200030B590F840500124AC40C56B6C60046853
:1007300063604468102C04D10468A2600468E1601E
:1007400003E00468A1600468E26030BD704772B6DF
:1007500000BFFEE770B50446E06B056820680668D8
:1007600094F84010042088402840002875D006F0F6
:1007700004000028FAD02068006800F0200028B9A2
:100780002068006820F0040021680860D5492068CE
:10079000884254D9D34978392068884201D104204D
:1007A00049E0D04964392068884201D1402042E0C4
:1007B000CC4950392068884201D100153BE0C94935
:1007C0003C392068884202D14FF4804033E0C5496B
:1007D00028392068884202D14FF480202BE0C1499B
:1007E00014392068884202D14FF4800023E0BD49CB
:1007F0002068884201D1C0041DE0BB4920688842BE
:1008000001D1042017E0B84914312068884201D191
:10081000402010E0B44928312068884201D10015F9
:1008200009E0B1493C312068884202D14FF4804050
:1008300001E04FF48020AC49091F086054E0A94949
:1008400078392068884201D104204AE0A5496439FA
:100850002068884202D1402043E04CE0A149503951
:100860002068884201D100153BE09E493C39206850
:10087000884202D14FF4804033E09A4928392068F9
:10088000884202D14FF480202BE096491439206829
:10089000884202D14FF4800023E0924920688842C8
:1008A00001D1C0041DE090492068884201D1042094
:1008B00017E08D4914312068884201D1402010E0B2
:1008C000894928312068884201D1001509E086490C
:1008D0003C312068884202D14FF4804001E04FF45F
:1008E0008020804980394860E06A002802D0204694
:1008F000E16A8847F4E094F84010022088402840DC
:10090000002871D006F002000028FAD020680068A4
:1009100000F0200040B92068006820F00A0021683B
:100920000860012084F821006E492068884254D96B
:100930006C4978392068884201D1022049E0694930
:1009400064392068884201D1202042E0654950394D
:100950002068884201D140153BE062493C3920685B
:10096000884202D14FF4005033E05E4928392068B4
:10097000884202D14FF400302BE05A4914392068E4
:10098000884202D14FF4001023E056492068884283
:1009900001D180041DE054492068884201D1022021
:1009A00017E0514914312068884201D1202010E01D
:1009B0004D4928312068884201D1401509E04A4953
:1009C0003C312068884202D14FF4005001E04FF4DE
:1009D00000304549091F086054E0424978392068D1
:1009E000884202D102204AE057E03E49643920683B
:1009F000884201D1202042E03A495039206888429B
:100A000001D140153BE037493C392068884202D18A
:100A10004FF4005033E0334928392068884202D12E
:100A20004FF400302BE02F4914392068884202D15E
:100A30004FF4001023E02B492068884201D1800444
:100A40001DE029492068884201D1022017E026498B
:100A500014312068884201D1202010E02249283139
:100A60002068884201D1401509E01F493C312068C7
:100A7000884202D14FF4005001E04FF40030194990
:100A80008039486000BF002084F8200000BFA06AC1
:100A900030B32046A16A884722E094F8401008202D
:100AA00088402840E0B106F00800C8B1206800681E
:100AB00020F00E002168086094F840100120884062
:100AC000E16B48600120A06384F8210000BF002092
:100AD00084F8200000BF206B10B12046216B8847AE
:100AE00070BD000080000240080402400146002260
:100AF00009B9012070471E4B086898420BD21D4B64
:100B00000868C01A1423B0FBF3F080000864194889
:100B10000838C8630AE0164B0868C01A1423B0FBF3
:100B2000F3F08000086412480838C863022081F896
:100B300021000868026843F6F0708243D1E901039E
:100B40001843CB6818430B6918434B6918438B69EA
:100B50001843CB6918430243086802600020886389
:100B6000012081F82100002081F8200000BFC1E7AA
:100B700008040240080002402DE9F04104460D46F9
:100B800016461F464FF0000800BF94F820000128C9
:100B900002D10220BDE8F081012084F8200000BFCE
:100BA00094F8210001282CD1022084F82100002093
:100BB000A0632068006820F00100216808603B46BF
:100BC000324629462046FFF7ABFDE06A30B1206887
:100BD000006840F00E00216808600BE020680068A3
:100BE00020F00400216808602068006840F00A00D6
:100BF000216808602068006840F0010021680860F2
:100C000006E000BF002084F8200000BF4FF002087B
:100C10004046BFE770B5044600F0B6F906462546E3
:100C2000681C10B104480078054400BF00F0ACF91E
:100C3000801BA842FAD370BD140000202DE9F847AC
:100C4000024600239C467BE14FF0010808FA03F4BA
:100C5000D1F8008008EA0400A0427DD1DFF8F4A2B8
:100C6000D1F80480A8EB0A09D0453AD014DCB8F1D9
:100C7000030F50D009DCB8F1000F31D0B8F1010FEB
:100C80001CD0B8F1020F49D120E0B8F1110F18D0F3
:100C9000B8F1120F42D11EE0B9F5881F25D006DC4D
:100CA000B9F5803F20D0B9F5801F37D11AE0B9F5EA
:100CB000001F18D0B9F5041F30D117E0D1F80CC0CF
:100CC0002DE0D1F80C8008F1040C28E0D1F80C805C
:100CD00008F1080C23E0D1F80C8008F10C0C1EE0A0
:100CE00000BF00BF00BF00BF00BF00BFD1F8088039
:100CF000B8F1000F02D14FF0040C0BE0D1F80880DE
:100D0000B8F1010F03D14FF0080C146102E04FF06D
:100D1000080C546103E04FF0000C00E000BF00BF7E
:100D2000FF2801D8904601E002F104084646FF285A
:100D300002D84FEA830803E0A3F108084FEA8808C5
:100D40004746D6F800804FF00F0909FA07F928EA5C
:100D500009080CFA07F900E07AE048EA0908C6F841
:100D60000080D1F8048008F08058B8F1805F6FD11E
:100D700000BFDFF8E481D8F8188048F00108DFF8F8
:100D8000D891C9F81880C846D8F8188008F001082A
:100D9000CDF8008000BF00BF4FEAB9384FEA930991
:100DA00058F829504FEA83784FEA18794FF00F0826
:100DB00008FA09F825EA0805DFF8A081424502D1C2
:100DC0004FF0000824E0DFF89881424502D14FF04F
:100DD00001081DE0DFF88C81424502D14FF0020886
:100DE00016E0DFF88481424502D14FF003080FE09E
:100DF000DFF87881424502D14FF0040808E0DFF8BF
:100E00007081424502D14FF0050801E04FF006081D
:100E10004FEA83794FEA197908FA09F848EA050593
:100E2000DFF850814FEA930948F82950D1F804803F
:100E300008F48018B8F5801F0BD1DFF83C81D8F892
:100E4000008048EA0008DFF83091C9F800800AE025
:100E500075E0DFF82481D8F8008028EA0008DFF880
:100E60001891C9F80080D1F8048008F40018B8F58A
:100E7000001F0ED1DFF8008108F10408D8F80080C7
:100E800048EA0008DFF8F09009F10409C9F8008089
:100E90000DE0DFF8E48008F10408D8F8008028EAC3
:100EA0000008DFF8D49009F10409C9F80080D1F8EE
:100EB000048008F40038B8F5003F0ED1DFF8B880A0
:100EC000A8F10408D8F8008048EA0008DFF8A890E4
:100ED000A9F10409C9F800800DE0DFF89C80A8F1B1
:100EE0000408D8F8008028EA0008DFF88C90A9F1FF
:100EF0000409C9F80080D1F8048008F48038B8F5F6
:100F0000803F0ED1DFF87080A8F10808D8F8008083
:100F100048EA0008DFF86090A9F10809C9F80080E4
:100F20000DE0DFF85480A8F10808D8F8008028EA1E
:100F30000008DFF84490A9F10809C9F800805B1C9B
:100F4000D1F8008028FA03F8B8F1000F7FF47CAEE6
:100F5000BDE8F887000011100010024000080140B1
:100F6000000C014000100140001401400018014035
:100F7000001C014008000140080401400AB1016161
:100F800001E00B04036170470148006870470000EE
:100F90000C0000200348006803490978084401490F
:100FA000086070470C0000201400002010B50848AD
:100FB000006840F0100006490860032000F0E2F8E5
:100FC0000F2000F007F800F05FF8002010BD0000CF
:100FD000002002402DE9F04188B004460027B846C1
:100FE000002600BF2348C06940F020002149C861A5
:100FF0000846C06900F02000019000BF00BF02A9B0
:1010000003A800F099F9069F1FB900F0BDF9054645
:1010100002E000F0B9F945001748B5FBF0F0A0F187
:10102000010816481649086040F2E7311448C160CB
:10103000C0F80480002101618160816100F0B8FC8A
:10104000064696B90E4800F013FD06466EB93720E5
:1010500000F04AF8102C07D200222146372000F079
:1010600053F80848046000E00126304608B0BDE8A7
:10107000F08100000010024040420F0000140040C8
:10108000180400201000002008B500BF1448806933
:1010900040F00100124988610846806900F00100B3
:1010A000009000BF00BF00BF0846C06940F08050FC
:1010B000C8610846C06900F08050009000BF00BFC2
:1010C00000220F21901E00F01FF800BF054948685C
:1010D00020F0E06040F00070486000BF08BD0000F4
:1010E000001002400000014001460846002809DBCC
:1010F00000F01F0301229A4043099B0003F1E02303
:10110000C3F8002100BF70472DE9F05F80460D460F
:101110001646002702F090FB074639462A4633461A
:1011200001F00700C0F1070ABAF1040F02D94FF02D
:10113000040A01E0C0F1070AD14600F1040ABAF13D
:10114000070F02D24FF0000A01E0A0F1030AD446D3
:101150004FF0010A0AFA09FAAAF1010A0AEA020A98
:101160000AFA0CFA4FF0010B0BFA0CFBABF1010B76
:101170000BEA030B4AEA0B042146404602F064FBEB
:10118000BDE8F09F00BF00F00702064B19684FF65C
:10119000FF031940044B0B4343EA0221014B196042
:1011A00000BF70470CED00E00000FA0570B5044682
:1011B0000D460CB9012070BD5A48006800F00700C8
:1011C000A8420ED25748006820F00700284355492E
:1011D00008600846006800F00700A84201D001201E
:1011E000E9E7207800F0020002281DD1207800F005
:1011F0000400042805D14C48406840F4E0604A49A6
:101200004860207800F00800082805D1464840686A
:1012100040F46050444948604348406820F0F00082
:10122000A168084340494860207800F0010078B385
:101230006068012806D13C48006800F4003090B98D
:101240000120B8E76068022806D13748006800F03E
:10125000007040B90120AEE73348006800F002009A
:1012600008B90120A7E73048406820F00300616812
:1012700008432D494860FFF787FE064609E0FFF75F
:1012800083FE801B41F28831884202D9032092E715
:1012900007E02548406800F00C006168B0EB810F62
:1012A000EDD12048006800F00700A8420ED91D4883
:1012B000006820F0070028431A49086008460068C3
:1012C00000F00700A84201D0012074E7207800F068
:1012D0000400042807D11448406820F4E060E16865
:1012E000084311494860207800F00800082808D118
:1012F0000D48406820F46050216940EAC1000A4965
:10130000486000F061F808494968C1F30311074AD1
:10131000515CC8400649086006480068FFF75AFE5D
:10132000002048E7002002400010024092610008BF
:1013300018000020100000200F2202600D4A5268A1
:1013400002F0030242600B4A526802F0F00282602F
:10135000084A526802F4E062C260064A526802F427
:101360006052D2080261044A126802F007020A6061
:101370007047000000100240002002400148006851
:10138000704700001800002000B5FFF7F7FF044980
:101390004968C1F30221034A515CC84000BD000006
:1013A00000100240A261000800B5FFF7E7FF044902
:1013B0004968C1F3C221034A515CC84000BD000026
:1013C00000100240A261000870B500210022002434
:1013D00000230020134D696801F00C05F5B1042DC0
:1013E00002D0082D19D101E00F4819E00F4DC1F3CB
:1013F0008346AB5D01F4803555B10A4D6D68C5F388
:1014000040450B4E725D084D5D43B5FBF2F402E0C2
:10141000084D03FB05F4204602E000BF024800BF70
:1014200000BF70BD0010024000127A008061000809
:101430009061000800093D00F8B504460CB9012090
:10144000F8BD207800F00100002878D0F848406806
:1014500000F00C0004280CD0F548406800F00C00A7
:10146000082811D1F248406800F48030B0F5803F80
:101470000AD1EF48006800F4003000285FD06068AF
:1014800000285CD10120DBE700BF6068B0F5803F39
:1014900006D1E748006840F48030E549086028E05C
:1014A000606858B9E248006820F48030E04908607C
:1014B0000846006820F4802008601AE06068B0F5F3
:1014C000A02F0BD1DA48006840F48020D84908608A
:1014D0000846006840F4803008600AE0D44800689C
:1014E00020F48030D24908600846006820F480204B
:1014F000086000BF606888B1FFF746FD054606E05A
:10150000FFF742FD401B642801D9032098E7C84833
:10151000006800F400300028F2D010E0FFF734FD3E
:10152000054606E0FFF730FD401B642801D9032083
:1015300086E7BF48006800F400300028F2D1207828
:1015400000F00200022857D1B948406800F00C00B2
:1015500050B1B748406800F00C00082818D1B448D2
:10156000406800F4803098B9B148006800F002008B
:1015700020B12069012801D0012061E7AC48006852
:1015800020F0F800616940EAC100A949086033E031
:101590002069E8B10120A7490860FFF7F5FC05467E
:1015A00006E0FFF7F1FC401B022801D9032047E7C2
:1015B0009F48006800F002000028F2D09C480068B4
:1015C00020F0F800616940EAC1009949086013E021
:1015D000002098490860FFF7D7FC054606E0FFF7B2
:1015E000D3FC401B022801D9032029E7904800685A
:1015F00000F002000028F2D1207800F0080008284E
:101600002DD1A069B8B101208B490860FFF7BCFC5F
:10161000054606E0FFF7B8FC401B022801D903206D
:101620000EE78348406A00F002000028F2D0012053
:1016300001F0E4FC13E000207F490860FFF7A4FC00
:10164000054606E0FFF7A0FC401B022801D9032055
:10165000F6E67748406A00F002000028F2D12078D0
:1016600000F00400042873D100277148C06900F01D
:10167000805070B900BF6E48C06940F080506C491E
:10168000C8610846C06900F08050009000BF00BFEC
:1016900001276A48006800F48070B0B967480068A4
:1016A00040F4807065490860FFF76EFC054606E06F
:1016B000FFF76AFC401B642801D90320C0E65F489D
:1016C000006800F480700028F2D000BFE0680128B4
:1016D00006D15748006A40F001005549086227E0EA
:1016E000E06858B95248006A20F001005049086289
:1016F0000846006A20F00400086219E0E068052846
:101700000BD14B48006A40F0040049490862084682
:10171000006A40F0010008620AE04548006A20F0D3
:101720000100434908620846006A20F0040008628C
:1017300000BFE068A0B1FFF727FC054609E0FFF70E
:1017400023FC401B41F28831884202D9032077E60E
:1017500022E03748006A00F002000028EFD012E0D3
:10176000FFF712FC054608E0FFF70EFC401B41F2B4
:101770008831884201D9032062E62D48006A00F0D2
:1017800002000028F0D1012F05D12948C06920F0BE
:1017900080502749C86100BFE069C8B32448406849
:1017A00000F00C00082860D0E069022848D1002031
:1017B00020490866FFF7E8FB054606E0FFF7E4FB73
:1017C000401B022801D903203AE61948006800F0BE
:1017D00000700028F2D1206AB0F5803F07D114488C
:1017E000406820F40030A168084311494860D4E9FA
:1017F000080108430E49496821F4741108430C4953
:10180000486001200B490866FFF7BEFB054607E06C
:101810003DE0FFF7B9FB401B022801D903200FE68A
:101820000348006800F000700028F2D02FE00000AC
:10183000001002400000424280044242007000401A
:10184000002014490866FFF79FFB054606E0FFF7F6
:101850009BFB401B022801D90320F1E50E480068DC
:1018600000F000700028F2D111E0E069012800D1F9
:10187000E6E50948466806F48031206A814204D1D1
:1018800006F47011606A814201D00120D8E5002081
:10189000D6E5000000004242001002407047704749
:1018A00010B50346002200BF93F83C00012801D187
:1018B000022010BD012083F83C0000BF22F0FF0091
:1018C000CC6840EA040222F440708C6840EA0402CA
:1018D00022F480604C6840EA040222F400600C6844
:1018E00040EA040222F480500C6940EA040222F427
:1018F00000504C6940EA040222F48040CC6940EA7E
:1019000004021868426400BF002083F83C0000BF56
:1019100000BFCEE730B502460B4600BF92F83C0050
:10192000012801D1022030BD012082F83C0000BF17
:10193000022082F83D00106844681068816824F035
:1019400070041868044310684460144D1068A8427D
:1019500013D0134D1068A8420FD01068B0F1804F1B
:101960000BD0104D1068A84207D00F4D1068A84248
:1019700003D00E4D1068A84205D121F080015868AF
:10198000014310688160012082F83D0000BF002003
:1019900082F83C0000BF00BFC5E70000002C0140FA
:1019A000003401400004004000080040000C0040EA
:1019B00010B504460CB9012010BD94F83D0028B9BB
:1019C000002084F83C00204600F026F8022084F82D
:1019D0003D00211D206801F0E3FB012084F8460052
:1019E00000BF84F83E0001213F20015540200155F1
:1019F0004120015500BF00BF012084F84200432070
:101A00000155442001554520015500BF012084F8AF
:101A10003D000020D0E7000008B5124A016891425D
:101A20000DD100BF1049896941F400610E4A9161EE
:101A30001146896901F40061009100BF11E00B4A71
:101A4000016891420DD100BF0749896941F40051F5
:101A5000054A91611146896901F40051009100BF66
:101A600000BF08BD002C01400010024000340140BE
:101A7000014691F83D00012801D001207047022065
:101A800081F83D000868C06840F001000B68D8602C
:101A9000164B0868984213D0154B086898420FD02F
:101AA0000868B0F1804F0BD0124B0868984207D0FD
:101AB000114B0868984203D0104B086898420CD12B
:101AC0000868806800F00702062A0CD008680068E1
:101AD00040F001000B68186005E00868006840F0FD
:101AE00001000B6818600020C8E70000002C0140CE
:101AF000003401400004004000080040000C004099
:101B00002DE9F04104460D46002700BF94F83C0043
:101B1000012802D10220BDE8F081012084F83C00B8
:101B200000BF022084F83D002068866826F0770612
:101B300026F47F46206886602868502833D00CDC65
:101B4000202850D004DC00284BD0102851D149E087
:101B5000302849D040284CD139E060282DD0702859
:101B600007D0B0F5805F03D0B0F5005F41D10DE044
:101B700041E0D5E902136A68206801F070FB206833
:101B8000866846F077062068866034E0D5E902135F
:101B90006A68206801F063FB2068806840F4804038
:101BA0002168886027E0EA686968206801F048FCDD
:101BB0005021206801F05EFB1DE0EA68696820683A
:101BC00001F051FC6021206801F054FB13E0EA6849
:101BD0006968206801F034FC4021206801F04AFB6C
:101BE00009E000BF00BF00BF2968206801F042FB88
:101BF00001E0012700BF00BF012084F83D0000BFC5
:101C0000002084F83C0000BF384684E72DE9F0410D
:101C100004460D4614B90120BDE8F08194F83D005A
:101C200028B9002084F83C00204600F051F802203A
:101C300084F83D002068806844F2070188432168E9
:101C40008860211D206801F0ABFA2068D0F8088078
:101C5000206886692068076A286840EA080840F218
:101C600003308643A969A86840EA0120064340F68C
:101C70000C4086434FF2F0008643E969E86840EA89
:101C80000120064328690001296A40EA0130064321
:101C900027F022076969686840EA01100743206855
:101CA000C0F808802068866120680762012084F8F7
:101CB000460084F83E0001213F200155012084F8B0
:101CC000420043200155012084F83D000020A3E795
:101CD00010B586B004460020029003900490059051
:101CE0002068B0F1804F4ED100BF7148C06940F00C
:101CF00001006F49C8610846C06900F00100019009
:101D000000BF00BF00BF0846806940F00400886142
:101D10000846806900F00400019000BF00BF00BFCA
:101D20000846806940F0080088610846806900F034
:101D30000800019000BF00BF4FF400400290002057
:101D40000390049002A95B48FEF778FF08200290F8
:101D500000200390049002A95748FEF76FFF00BFD0
:101D60005649486820F4407040F0E06040F48070CC
:101D7000486000BF002205211C20FFF7C5F91C2088
:101D8000FFF7B2F991E04E49206888422CD100BF9C
:101D90004748C06940F002004549C8610846C0692B
:101DA00000F00200019000BF00BF00BF084680693C
:101DB00040F0040088610846806900F0040001904A
:101DC00000BF00BFC020029000200390049002A931
:101DD0003848FEF733FF002205211D20FFF794F954
:101DE0001D20FFF781F960E03649206888422CD138
:101DF00000BF2F48C06940F004002D49C861084663
:101E0000C06900F00400019000BF00BF00BF084699
:101E1000806940F0080088610846806900F0080089
:101E2000019000BF00BFC0200290002003900490EA
:101E300002A92148FEF702FF002205211E20FFF71C
:101E400063F91E20FFF750F92FE01F4920688842F0
:101E50002BD100BF1648C06940F008001449C86182
:101E60000846C06900F00800019000BF00BF00BF35
:101E70000846806940F0040088610846806900F0E7
:101E80000400019000BF00BF0320029000200390D7
:101E9000049002A90748FEF7D1FE00220521322056
:101EA000FFF732F93220FFF71FF906B010BD00002E
:101EB0000010024000080140000C014000000140F9
:101EC0000004004000080040000C00402DE9F043F1
:101ED00004460D4694F83E603F20075D94F842802A
:101EE000432010F804906DB9012E02D1B8F1010F12
:101EF00002D00120BDE8F083022084F83E0084F87F
:101F0000420025E0042D0CD1012F02D1B9F1010FBF
:101F100001D00120EEE702213F2001554320015569
:101F200016E0012E07D1012F05D1B8F1010F02D122
:101F3000B9F1010F01D00120DCE7022084F83E0056
:101F400002213F200155022084F842004320015520
:101F500015B1042D0CD105E001220021206801F00B
:101F60006DF910E001220421206801F067F90AE010
:101F700001220021206801F061F90122042120687A
:101F800001F05CF900BF00BF2068006840F001006C
:101F9000216808600020ADE7704710B5044620684E
:101FA0000069C0F34000D8B12068C068C0F34000A9
:101FB000B0B16FF00200216808610120207720682D
:101FC000806900F0030018B12046FFF7E5FF05E047
:101FD000204600F0F9F8204600F0ADF90020207707
:101FE00020680069C0F38000D8B12068C068C0F3E1
:101FF0008000B0B16FF004002168086102202077F2
:102000002068806900F4407018B12046FFF7C4FFD3
:1020100005E0204600F0D8F8204600F08CF90020BA
:10202000207720680069C0F3C000D8B12068C0687C
:10203000C0F3C000B0B16FF008002168086104204F
:1020400020772068C06900F0030018B12046FFF730
:10205000A3FF05E0204600F0B7F8204600F06BF93A
:102060000020207720680069C0F30010D8B12068F4
:10207000C068C0F30010B0B16FF0100021680861B3
:10208000082020772068C06900F4407018B120460D
:10209000FFF782FF05E0204600F096F8204600F0AA
:1020A0004AF9002020772068006900F0010058B14B
:1020B0002068C06800F0010030B16FF001002168B5
:1020C0000861204600F0B2F920680069C0F3C01032
:1020D00058B12068C068C0F3C01030B16FF0800004
:1020E000216808612046FFF7D9FB20680069C0F32A
:1020F000801058B12068C068C0F3801030B16FF014
:10210000400021680861204600F09CF920680069C1
:10211000C0F3401058B12068C068C0F3401030B11F
:102120006FF02000216808612046FFF7B8FB10BD62
:1021300010B586B0044600200290039004900590EC
:102140001C492068884217D100BF1B48806940F0B5
:102150000400194988610846806900F00400019074
:1021600000BF00BF4815029002200390059002A90D
:102170001248FEF763FD1BE011492068884217D121
:1021800000BF0D48806940F010000B498861084687
:10219000806900F01000019000BF00BF4FF4707024
:1021A000029002200390059002A90648FEF746FD22
:1021B00006B010BD002C0140001002400008014094
:1021C000003401400010014070472DE9F041044601
:1021D0000D461646002700BF94F83C00012802D1A6
:1021E0000220BDE8F081012084F83C0000BF36B138
:1021F000042E1BD0082E31D00C2E5ED145E029468E
:10220000206801F041F82068806940F008002168EA
:1022100088612068806920F0040021688861206856
:102220008069296908432168886148E02946206857
:1022300001F062F82068806940F4006021688861DC
:102240002068806920F48060216888612068806946
:10225000296940EA01202168886130E02946206828
:1022600001F088F82068C06940F008002168C86162
:102270002068C06920F004002168C8612068C06936
:10228000296908432168C86119E02946206801F0DE
:10229000ADF82068C06940F400602168C86120681A
:1022A000C06920F480602168C8612068C06929691C
:1022B00040EA01202168C86101E0012700BF00BF9A
:1022C00000BF002084F83C0000BF384689E710B505
:1022D00004460CB9012010BD94F83D0028B9002037
:1022E00084F83C00204600F025F8022084F83D00E8
:1022F000211D206800F054FF012084F8460000BF33
:1023000084F83E0001213F20015540200155412025
:10231000015500BF00BF012084F842004320015551
:10232000442001554520015500BF012084F83D009F
:102330000020D0E77047704770B504460D4615B9C8
:1023400094F83E000BE0042D02D13F20005D06E032
:10235000082D02D14020005D01E04120005D0128F0
:1023600001D0012070BD1DB9022084F83E000EE0AE
:10237000042D03D102213F20015508E0082D03D18F
:1023800002214020015502E0022141200155012295
:102390002946206800F052FF1F492068884203D078
:1023A0001E492068884201D1012000E0002028B1A8
:1023B0002068406C40F40040216848641649206859
:1023C000884213D01549206888420FD02068B0F1A8
:1023D000804F0BD012492068884207D011492068ED
:1023E000884203D01049206888420CD12068806858
:1023F00000F00706062E0CD02068006840F00100AF
:102400002168086005E02068006840F0010021684C
:1024100008600020A6E70000002C014000340140C5
:102420000004004000080040000C004010B50446C5
:1024300003492068884201D1FEF7ACFD10BD0000C1
:102440000014004070477047704710B504460CB93F
:10245000012010BDA06900B100E000BF94F8410068
:1024600028B9002084F84000204600F029F82420F4
:1024700084F841002068C06820F400502168C860DA
:10248000204601F0E1F82068006920F490402168BE
:1024900008612068406920F02A00216848612068AE
:1024A000C06840F400502168C860002060642020AB
:1024B00084F8410084F842000020606300BFC8E750
:1024C00010B586B004460020029003900490059059
:1024D00027492068884249D100BF2648C06940F496
:1024E00080202449C8610846C06900F4802001901A
:1024F00000BF00BF00BF0846806940F00800886147
:102500000846806900F00800019000BF00BF081570
:102510000290022003900320059002A91648FEF7BE
:102520008DFB4FF40060029000200390049002A9FC
:102530001148FEF783FB11481149086000204860EC
:1025400000210F4881608021C1600021016141614B
:10255000202181610021C161FEF7C8FA08B1FEF7B0
:10256000F6F800BF0648E063446200BF06B010BD45
:102570000048004000100240000C014030000240C2
:10258000D403002070B504460D46164694F8420068
:1025900020280BD105B10EB9012070BD00202063A9
:1025A00032462946204601F0CDF8F6E70220F4E74E
:1025B00010B504460348844202D1034802F09CF857
:1025C00010BD00008C0300207C000020704700BF7D
:1025D000FEE7000008B500BF0A48406940F001006E
:1025E000084948610846406900F00100009000BFBA
:1025F00000BF002205210D20FEF786FD0D20FEF70D
:1026000073FD08BD0010024000B595B01C221249B0
:102610000EA8FDF747FE00210EA801F001FD0F49AD
:1026200008601C220C491C3107A8FDF73BFE002165
:1026300007A801F0F5FC0A4908601C220649383158
:102640006846FDF72FFE0021684601F0E9FC0549C8
:10265000086015B000BD00002C61000800000020DB
:10266000040000200800002000B585B00020019083
:1026700002900390049000BF2C48806940F0200035
:102680002A4988610846806900F02000009000BF58
:1026900000BF00BF0846806940F00400886108461A
:1026A000806900F00400009000BF00BF00BF084632
:1026B000806940F0100088610846806900F01000D1
:1026C000009000BF00BF00BF0846806940F00800CE
:1026D00088610846806900F00800009000BF00BFD4
:1026E000002230211248FEF749FC00224FF203017C
:1026F0001048FEF743FC302001900120029000209A
:1027000003900220049001A90948FEF797FA4FF2BE
:102710000300019001200290002003900220049009
:1027200001A90448FEF78AFA05B000BD0010024076
:1027300000100140000C014000B595B00020119040
:102740001290139014900F9010901C2108A8FDF780
:10275000DBFD20216846FDF7D7FD2B482B4908609B
:1027600040F2CF20486000212848816040F2CF71BC
:10277000C1600021016141618161FFF719F908B170
:10278000FDF7E5FF4FF48050119011A91F48FFF7A6
:10279000B7F908B1FDF7DBFF1C48FFF798FD08B15A
:1027A000FDF7D5FF00200F9010900FA91748FFF7F5
:1027B000B1F808B1FDF7CBFF602008900020099028
:1027C0000A900B900C900D900E90042208A90F48CF
:1027D000FFF7FBFC08B1FDF7BAFF00200090019065
:1027E0000290039004904FF4005005900020079051
:1027F00069460648FFF754F808B1FDF7A8FF0348FB
:10280000FFF796FC15B000BD002C0140DC01002054
:1028100000B58BB0242102A8FDF776FD00200090C2
:1028200001904FF080401749086000204860002167
:102830001448816044F61F61C1600021016181611B
:1028400003200290002003900120049000200590B6
:102850000690079001200890002009900A9002A994
:102860000848FFF7D3F908B1FDF771FF0020009089
:10287000019069460348FFF74DF808B1FDF767FF7F
:102880000BB000BD2402002000B58BB0242102A8AB
:10289000FDF73AFD002000900190184818490860A3
:1028A0000020486000211648816044F61F61C16025
:1028B000002101618161032002900020039001202A
:1028C00004900020059006900790012008900020B9
:1028D00009900A9002A90A48FFF798F908B1FDF794
:1028E00036FF00200090019069460548FFF712F876
:1028F00008B1FDF72CFF0BB000BD00000004004044
:102900006C02002000B58BB0242102A8FDF7FCFC6E
:102910000020009001901848184908600020486085
:1029200000211648816044F61F61C16000210161E9
:102930008161032002900020039001200490002078
:1029400005900690079001200890002009900A90B9
:1029500002A90A48FFF75AF908B1FDF7F8FE00206E
:102960000090019069460548FEF7D4FF08B1FDF7D5
:10297000EEFE0BB000BD000000080040B4020020D5
:1029800000B58BB0242102A8FDF7BEFC002000900A
:102990000190184818490860002048600021164836
:1029A000816044F61F61C1600021016181610320E3
:1029B00002900020039001200490002005900690D2
:1029C000079001200890002009900A9002A90A4867
:1029D000FFF71CF908B1FDF7BAFE00200090019046
:1029E00069460548FEF796FF08B1FDF7B0FE0BB04B
:1029F00000BD0000000C0040FC02002000B595B0B6
:102A0000002011901290139014900F9010901C21A0
:102A100008A8FDF779FC20216846FDF775FC3748CA
:102A2000374908600020486000213548816041F640
:102A30001F41C1600021016141618161FEF7B8FF62
:102A400008B1FDF784FE4FF48050119011A92C4875
:102A5000FFF756F808B1FDF77AFE2948FFF737FC73
:102A600008B1FDF774FE00200F9010900FA92448C4
:102A7000FEF750FF08B1FDF76AFE602008900020C5
:102A800009900A900B900C900D900E90002208A9CE
:102A90001B48FFF79AFB08B1FDF759FE042208A96D
:102AA0001748FFF792FB08B1FDF751FE082208A96D
:102AB0001348FFF78AFB08B1FDF749FE0C2208A96D
:102AC0000F48FFF782FB08B1FDF741FE00200090A0
:102AD00001900290039004904FF400500590002064
:102AE000079069460648FEF7DBFE08B1FDF72FFEAA
:102AF0000348FFF71DFB15B000BD00000034014086
:102B00004403002010B50B480B4908604FF4E13036
:102B10004860002108488160C16001610421416171
:102B200000218161C161FFF790FC08B1FDF70FFE44
:102B300010BD0000004800408C03002000BFFEE7ED
:102B400070B50446206C03F003F905B2E06B03F0A6
:102B5000FFF806B22A46314604F1440000F060F95D
:102B60005421085370BD2DE9F04104460D4620461E
:102B7000216F8847284603F007F92064206C03F092
:102B8000E7F807B2A06B03F0E3F80FFA80F83A46D3
:102B9000414604F1440000F043F906463146204620
:102BA000A26F9047BDE8F0812DE9F04104460D4643
:102BB000002D0ADD218A0122E068FEF7DFF9218B72
:102BC00000226069FEF7DAF916E0002D0ADA218AA0
:102BD0000022E068FEF7D2F9218B01226069FEF73E
:102BE000CDF909E0218A0022E068FEF7C7F9218BC0
:102BF00000226069FEF7C2F9A06858B9284602F0C1
:102C000038FD21F00041064602F006FD61680968C2
:102C1000486328E0A06804280BD1284602F029FD6B
:102C200021F00041064602F0F7FC616809688863FC
:102C300019E0A06808280BD1284602F01AFD21F0FF
:102C40000041064602F0E8FC61680968C8630AE0D2
:102C5000284602F00EFD21F00041064602F0DCFCA1
:102C6000616809680864BDE8F081000001680968CE
:102C70004A6A0262D0E907218A1A426242F210725D
:102C8000416A914204DD416AA1EB4201416208E0E0
:102C9000044A416A914204DA44F62062416A0A44D5
:102CA00042627047F0D8FFFF2DE9F05F04460D4601
:102CB00016461F46DDE90CABDDE90A891048A0661F
:102CC0001048E06610482067104860671048A06709
:102CD0001048E06725606660A760C4F80C80A4F81F
:102CE0001090C4F814A0A4F818B0D4E90101FFF7BB
:102CF00023FB3C212068FFF7E9F8BDE8F09F0000C6
:102D0000192D00086D2C0008452D0008412B0008E6
:102D1000A92B0008672B00082DE9FE4F04460D463D
:102D200016461F46DDE90D9ADDF830803B463246F7
:102D3000294604F144008DE8000700F02BF9BDE8B6
:102D4000FE8F00002DE9FC5F8246DAF82000CAF809
:102D50001C00DAF8240003F017F80546264902F0B3
:102D600035FF0446254903F027F8CAF8280024490E
:102D7000DAF8280003F020F84FF08041019003F0CA
:102D80001BF8834602F094FE80461E4A1E4B02F05A
:102D90009BFC064600221D4B02F0B6FA044602F0E8
:102DA000D1F9CAF82C00DAF83800CAF83400DAF899
:102DB0002800CAF83800DAF8340002F079FE064636
:102DC000134A144B02F080FCCDE90001DAF8380018
:102DD00002F06EFE06460E4A0F4B02F075FC0446EA
:102DE000DDE9002302F0E0F9804602F0ABF9CAF811
:102DF0003C00BDE8FC9F00000000A5440000164414
:102E000000002042462C4454FB21094000004E4063
:102E10009A9999999999C93F9999E93F00BFFEE715
:102E20002DE9F84F04460D46164614B90020BDE8BA
:102E3000F88F218C6184E18B2184A681E581701B50
:102E400000B2E083207800284CD16088E18B4843B1
:102E500000B26082B4F91400B4F90410B4F91E2071
:102E600001FB020000B2A082618BA183218B6183F0
:102E7000E18B208C081A00B22083E088218B484324
:102E800000B2E082B4F91400B4F90A10884202DDFD
:102E90006089A0820AE0B4F91400B4F90A1049422A
:102EA000884203DA6089404200B2A082608AA18A27
:102EB0000844E18A084400B22082B4F91000B4F951
:102EC0000810884202DD2089208260E0B4F91000F9
:102ED000B4F908104942884259DA2089404200B2C8
:102EE000208254E02078012851D1E18B208C081AEF
:102EF0006188484300B26082A088E18B484300B2F9
:102F0000A082618BA183218B6183B4F9220002F03E
:102F10003BFF0090B4F9200002F036FF83464FF0EB
:102F2000804102F049FF8146B4F91E0002F02CFFF7
:102F30008246494603F00CF88046009902F0E4FD11
:102F4000074602F005FF00B22083E088218B48434A
:102F500000B2E082608AA18A0844E18A0844218A9A
:102F6000084400B22082B4F91000B4F90810884275
:102F700002DD208920820AE0B4F91000B4F90810BB
:102F80004942884203DA2089404200B22082B4F9E3
:102F900010004CE72DE9F04704460D4616461F4643
:102FA000DDE9099ADDF820800CB9BDE8F0872570CD
:102FB000404602F0CDFE00B26080484602F0C8FEF6
:102FC00000B2A080504602F0C3FE00B2E08030465E
:102FD00002F0BEFE00B22081384602F0B9FE00B217
:102FE00060810021A183618321832182E182A1820A
:102FF000618261842184E18300BFD6E708B5084976
:103000000968C9084FF47A72B1FBF2F141430091AB
:1030100000BF00BF00994A1E00920029F9D108BDE7
:103020001800002000BF012000F0DBFFFBE70000DC
:1030300008B501F05BFF0090FDF7DCF920E0FDF73B
:1030400049FA002407E00F4A02EBC41002EBC41255
:10305000D16E8847641C042CF5D30120FDF7DAFDFE
:10306000002407E0074A02EBC41002EBC412116F00
:103070008847641C042CF5D36321684600F0BDFF2B
:10308000DDE700005411002011E000F071FF04465C
:10309000207F20B9322006490968886306E0207F36
:1030A000012803D1962002490968886300BFECE734
:1030B000DC01002010B500BF502080F31188BFF361
:1030C0004F8FBFF36F8F00BF01F016FF18B14FF0A5
:1030D00080500449086000BF002080F3118800BFC1
:1030E00010BD000004ED00E000B58FB0282105A858
:1030F000FDF70AF914216846FDF706F9012005904D
:1031000000040690002007900120099002200C90F6
:10311000C1030D914FF4E0110E9105A8FEF78CF953
:1031200008B1FDF714FB0F20009002200190002051
:1031300002904FF4806003900020049002216846C2
:10314000FEF734F808B1FDF702FB0FB000BD704781
:1031500010B50248FEF721FF10BD00002402002038
:1031600010B50248FEF719FF10BD00006C020020E8
:1031700010B50248FEF711FF10BD0000B402002098
:1031800010B50248FEF709FF10BD0000FC02002048
:1031900010B50248FEF701FF10BD00001804002022
:1031A00010B50268204B98420ED0204B98420BD0AD
:1031B000B0F1804F08D01E4B984205D01D4B98426D
:1031C00002D01D4B984203D122F070024B681A4383
:1031D000154B98420ED0154B98420BD0B0F1804F52
:1031E00008D0134B984205D0124B984202D0124B94
:1031F000984203D122F44072CB681A4322F0800334
:103200004C6943EA040202608B68C3620B68836204
:10321000054B984202D0054B984201D10B690363DC
:103220000123436110BD0000002C01400034014027
:103230000004004000080040000C004030B501F0E0
:103240001F05012404FA05F3046A9C430462046A1E
:1032500001F01F0502FA05F52C43046230BD30B5BC
:103260000C46816821F47F4142EA03252543294326
:10327000816030BD0A46816821F0700142F0070389
:10328000194381607047000030B5026A056A25F075
:10329000010505624368846924F0700424F0030486
:1032A0000D682C4322F002028D682A43104DA8427B
:1032B00000D103E00F4DA84206D100BF22F0080262
:1032C000CD682A4322F00402094DA84202D0094DDC
:1032D000A84207D123F4807323F400734D692B4374
:1032E0008D692B43436084614D684563026230BD44
:1032F000002C01400034014030B5026A056A25F017
:10330000100505624368846924F4E04424F44074A1
:103310000D6844EA052422F020028D6842EA051275
:10332000124DA84200D103E0114DA84207D100BFC1
:1033300022F08002CD6842EA051222F040020B4DD5
:10334000A84202D00A4DA84209D123F4806323F495
:1033500000634D6943EA85038D6943EA8503436051
:1033600084614D688563026230BD0000002C01401D
:103370000034014030B5026A056A25F480750562A3
:103380004368C46924F0700424F003040D682C43DE
:1033900022F400728D6842EA0522124DA84200D143
:1033A00003E0114DA84207D100BF22F40062CD68AE
:1033B00042EA052222F480620A4DA84202D00A4D58
:1033C000A84209D123F4805323F400534D6943EA02
:1033D00005138D6943EA05134360C4614D68C563F5
:1033E000026230BD002C01400034014030B5036A58
:1033F000056A25F4805505624468C26922F4E042FA
:1034000022F440720D6842EA052223F400538D68CD
:1034100043EA0533084DA84202D0084DA84204D122
:1034200024F480444D6944EA85144460C2614D68C7
:103430000564036230BD0000002C014000340140EF
:1034400030B50B461446026A056A25F0010505628F
:10345000816921F0F00141EA041122F00A021A43C5
:103460008161026230BD30B50B461446026A056ABE
:1034700025F010050562816921F4704141EA0431AB
:1034800022F0A00242EA03128161026230BD70B5EF
:1034900006460025746A20684069C0F3C01594F898
:1034A0004100212805D125B10020E084204600F00C
:1034B000B8F820684069C0F3801594F842002228CB
:1034C00005D125B10020E085204600F074F8606C3D
:1034D00040F0100060642046FEF7B6FF70BD70B586
:1034E00005466C6A2868006800F02000002842D178
:1034F000E08500BF00BF21680C3151E8001F21F4B6
:10350000807021680C3141E80002002AF3D100BF2D
:1035100000BF00BF2168143151E8001F21F00100F5
:103520002168143141E80002002AF3D100BF00BF36
:1035300000BF2168143151E8001F21F040002168CC
:10354000143141E80002002AF3D100BF202084F8A2
:103550004200206B01280ED100BF00BF21680C3152
:1035600051E8001F21F0100021680C3141E80002F1
:10357000002AF3D100BF00206063206B012804D132
:10358000A18D2046FEF75FFF02E02046FFF710F80E
:1035900070BD70B505466C6A01206063206B012820
:1035A00005D1A08D41082046FEF74DFF02E02046E0
:1035B000FFF70CF870BD00BF00BF02680C3252E884
:1035C000002F22F4907102680C3242E80013002BA5
:1035D000F3D100BF00BF00BF0268143252E8002FD1
:1035E00022F001010268143242E80013002BF3D1EB
:1035F00000BF016B01290ED100BF00BF02680C3271
:1036000052E8002F22F0100102680C3242E8001349
:10361000002BF3D100BF202180F84210002101636C
:10362000704700BF00BF02680C3252E8002F22F042
:10363000C00102680C3242E80013002BF3D100BF36
:10364000202180F84110704770B50446216809694F
:1036500021F44051E2681143226811612269A16896
:103660001143626941EA02052168C96841F20C62AE
:10367000914329432268D1602168496921F440714E
:10368000A2691143226851612D4A2168914202D1F9
:10369000FDF78AFE01E0FDF777FE00EBC00101EBCC
:1036A000001162689200B1FBF2F100EBC00202EB84
:1036B000001263689B00B2FBF3F26423B2FBF3F2E7
:1036C00002EBC20303EB0212A1EB8201322202EBF6
:1036D00001116422B1FBF2F101F0F00100EBC00234
:1036E00002EB001263689B00B2FBF3F26423B2FBAF
:1036F000F3F201EB021200EBC00101EB0011636871
:103700009B00B1FBF3F100EBC00303EB0013666811
:10371000B600B3FBF6F36426B3FBF6F303EBC30684
:1037200006EB0313A1EB8301322303EB01116423A6
:10373000B1FBF3F101F00F0111442268916070BDFB
:103740000038014077B581B0044615460298A06262
:10375000A58500206064222084F842002848E16B9F
:1037600088622848E16BC8622748E16B0863002043
:10377000E16B486302AE32682368191D2B46E06B8B
:10378000FDF7FAF900BF0020009020680068009063
:1037900020684068009000BF00BF206970B100BF82
:1037A00000BF21680C3151E8001F41F4807021688E
:1037B0000C3141E80002002AF3D100BF00BF00BF76
:1037C0002168143151E8001F41F0010021681431D3
:1037D00041E80002002AF3D100BF00BF00BF21680A
:1037E000143151E8001F41F040002168143141E8D4
:1037F0000002002AF3D100BF002004B070BD000019
:10380000DF340008933500088F34000800BFFEE75E
:10381000490050EAC12018BF04204A0D18BF40F0EB
:10382000010040F2FF72B2EB515F08BF40F00200AE
:10383000012808BF0520704702480068C0F3022035
:10384000704700000CED00E010B5002804DB0A070B
:10385000130E054A135406E00A07140E034A00F03B
:103860000F031B1FD45410BD00E400E018ED00E06E
:103870002DE9F74F144694B00021C4E902111599BF
:10388000079121F00045C9498D4206DC1599C4E92C
:10389000000117B00020BDE8F08FC549DFF814A380
:1038A000A9423CDD0799C44E0029C44FC44A15996A
:1038B000534619DD02F012F8554506D0C14AC24BF5
:1038C00002F00CF8C4E900010AE04FF0D352BE4BFD
:1038D00002F004F832463B4602F000F8C4E9000169
:1038E00017B00120BDE8F08F01F05EFC554506D011
:1038F000B44AB54B01F058FCC4E900010AE04FF0AE
:10390000D352B14B01F050FC32463B4601F04CFC27
:10391000C4E9000117B04FF0FF30BDE8F08FAB49AC
:10392000A942159978DB21F0004183468846A84AD0
:10393000A84B01F0C9FE0022A74B01F035FC01F0B5
:103940003BFE099001F095FE06460F469C4A534601
:1039500001F0BAFE43465A4601F0B4FF80468A465B
:10396000984A994B3046394601F0AEFE2A0D0125A2
:103970000B924246534601F0A5FF032DC4E9000116
:1039800039D00B98C1F30A51401A05EB4511113992
:10399000814230DA9148C346784400EB0510CDF8F7
:1039A0000CA00C90D0E900233046394601F08CFE83
:1039B00002460B46049106905846039901F08EFF8B
:1039C00080468A4602460B465846039901F086FF18
:1039D000049B069A01F082FF83460C9803913946B6
:1039E000D0E90223304601F06FFE5A46039B01F0F6
:1039F00075FF6D1CBDE707980028A2BF099817B096
:103A0000BDE8F08F616881F000416160099817B0EE
:103A10004042BDE8F08FFFE784461598C1F31301DB
:103A2000C0F30A50A0F2F5304FEA601800F01F060C
:103A3000C6F12000139000200690079041F4801EEC
:103A400005206D4676B1664A08EB00017A4452F8CB
:103A5000213002EB8101B3404A68139922FA01F147
:103A6000194305E05F4908EB0002794451F8221040
:103A7000A1FB0E27A1FB0C131A449A4234BF012369
:103A8000002303EB070A05EB8003D3E901B70F44DA
:103A90008F4234BF0121002193448B4411B19345DF
:103AA00002D903E0934501D2012100E00021C3E9DE
:103AB00001B7514445F82010011EA0F10100C1DCFE
:103AC0000298059F00F10050800F12900298DDE9E6
:103AD0000356800001F0CDFD834628460D9101F08C
:103AE000DFFD6FF01D0202F0DAFACDE90E0130467B
:103AF00001F0D6FD6FF03D0202F0D1FA80468A4611
:103B0000384601F0CDFD6FF05D0202F0C8FA0746BD
:103B100042465346119101F047FBDDE90E2301F0C7
:103B200043FB5A460D9B01F03FFB00250E465A46CB
:103B300028460D9B01F0D2FEDDE90E2301F0CEFEFA
:103B40004246534601F0CAFE3A46119B01F0BAFEC6
:103B5000DFF898A0244A534601F0B6FD0746884690
:103B6000234A244B3146284601F0AEFD3A464346EF
:103B700001F01AFB074688464FF0A84253463146EB
:103B8000284601F0A1FD3A46434601F00DFB159A87
:103B900012F0004F04D0129A81F00041524212926A
:103BA000C4E90001129817B0BDE8F08FFB21E93F8E
:103BB0007CD90240FB21F93F7370032E8A19A33B85
:103BC000000040543163621A61B4D03DFB21394199
:103BD00083C8C96D305FE43F0000E03F4428000027
:103BE000C0270000A2270000182D4454FB21F93DF6
:103BF0003326A611460B113C2DE9FF4D21F000485C
:103C000007460C46B8F1795F08DA01F0D5FC0028C8
:103C100001BF0020324904B0BDE8F08D3A4623468A
:103C20001046194601F050FD054602462D480E4645
:103C30000B460621784400F05DF82A46334601F031
:103C400043FDDDE9022382468B463846214601F0DA
:103C50003BFD04460F4652465B462846314601F07E
:103C600033FD22463B4601F039FE07468A464FF0B7
:103C7000FF322846314602F012FA1B4A90450ADA12
:103C80003A46534601F02AFE04B00022BDE8F04D4A
:103C9000134B01F017BE154A4245A8BFA8F5001501
:103CA0004FF00004B8BF124D22462B4601F016FE1D
:103CB0000646884622462B460020094901F00EFEA2
:103CC00004460D463A4653463046414601F006FE4C
:103CD00004B022462B46BDE8F04D01F0F3BD0000D4
:103CE0000000F03F782500003333D33F0000E93F68
:103CF0000000D23F2DE9F0414F1E00EBC701044602
:103D0000D1E9000115461E4637F006020DD02A46BD
:103D1000334601F0D9FC7F1E04EBC703D3E900232F
:103D200001F042FA37F00602F1D1022F25D0042F1C
:103D300013D0062F18BFBDE8F0812A46334601F0A4
:103D4000C3FCD4E90A2301F02FFA2A46334601F0D6
:103D5000BBFCD4E9082301F027FA2A46334601F0D8
:103D6000B3FCD4E9062301F01FFA2A46334601F0DA
:103D7000ABFCD4E9042301F017FA2A46334601F0DC
:103D8000A3FCD4E9022301F00FFA2A46334601F0DE
:103D90009BFCD4E90023BDE8F04101F005BA000026
:103DA0002DE9FF4D054621F0004084B00C46B0F1EE
:103DB000795F0BDA2846FFF72BFD042808BF00F0D7
:103DC0006FF8284608B02146BDE8F08D2A460B461C
:103DD000104601F079FC06460F462A46234601F0BC
:103DE00073FC804626488A4632463B460521784485
:103DF000FFF780FF83461098029160B3214A224B5F
:103E00004046514601F060FCCDE900015A4640466B
:103E10005146029B01F058FC82468846DDE90601C6
:103E20004FF0FF3202F03BF95246434601F056FD97
:103E300032463B4601F048FCDDE9062301F04EFD29
:103E4000DDE9002301F04AFD08B02A462346BDE81B
:103E5000F04D01F037BD0B465A463046394601F069
:103E600033FC084A084B01F09FF94246534601F0E3
:103E70002BFC08B02A462346BDE8F04D01F094B96A
:103E8000B6240000495555555555C5BF012202F0CD
:103E900006B9002213461046114601F035BA00005B
:103EA000024A0020110702F0FAB8000001FDFFFFEE
:103EB00000B5244B21F0004287B09A42DCBF0022BB
:103EC000134629DD204B9A4208D140B94FF001003A
:103ED000FCF749FAFFF7DDFF07B000BD03DBFFF792
:103EE000D5FF07B000BD02AAFFF7C2FC10F0030126
:103EF00004BF0DF1080C9CE80F000DD00120012932
:103F00000ED0022914D00DF1080C00909CE80F008F
:103F1000FFF746FF07B000BDFFF76EFE07B000BD1C
:103F20000DF1080C00909CE80F00FFF739FF05E049
:103F30000DF1080C9CE80F00FFF75EFE07B081F062
:103F4000004100BDFB21E93F0000F07F70B5044651
:103F5000204601F019FF0646034901F02DFF0546F2
:103F6000024901F033FE70BDDB0F494000003443CD
:103F70000048704774130020FDF718F8FFF7B4F8F5
:103F8000FEF772FBFEF726FBFEF7D6FBFEF740FCC2
:103F9000FEF77AFCFEF7B6FCFEF7F2FCFEF72EFD0C
:103FA000FEF7B0FD0B2208490848FEF7EBFA0421A2
:103FB0000748FEF7C1F9FFF7DBFFFEF725FB00F02E
:103FC0002AF800BFFEE700007C0000208C030020E0
:103FD000DC01002001460020842901D0CA1C1044C5
:103FE000704770B5044625460DB1294600E0012111
:103FF000084600F033FD002070BD70B505460C4644
:1040000026460EB1304600E001200146284600F069
:1040100053FD002070BD10B500F0B8FD002010BDAC
:104020007FB504460D46606998B1A06988B1B4F9BE
:104030000800FFF7CFFF0646D4E90510CDE900617F
:1040400002902B462269D4E9001000F0F3FE0390A1
:1040500013E0B4F90800FFF7BDFF064603A8CDE959
:104060000060238A9AB22B46D4E9001000F0B0FE1B
:10407000012802D0002004B070BD0398FBE70000C7
:104080002DE9F04105460E461C4807681C480068AB
:10409000001D00F0E6FB50B91948006890F82C109C
:1040A0000120884017490968814316480160681C4F
:1040B00038B936B112480168091D134800F01CFCDC
:1040C0001AE07C190E4800684460BC4207D20C48D4
:1040D0000168091D0D48006800F0F4FB0CE0084879
:1040E0000168091D0A48006800F0ECFB09480068F7
:1040F000844201D207480460BDE8F081300000200E
:104100001C000020340000203C050020240000207A
:10411000200000204C00002010B5044600F0F8FB01
:1041200023480068401C224908602248006840B9C2
:10413000204804600846006801280DD100F03AF9D3
:104140000AE01D48006838B91A480068C06AE16A88
:10415000884201D81748046018480068401C174975
:10416000086094F82C10012088401549096808431C
:1041700013490860E16A01EB8101124A02EB8100F8
:10418000211D00F0B9FB00F0EDFB0B48006868B1A1
:1041900008480068C06AE16A884207D24FF0805040
:1041A00009490860BFF34F8FBFF36F8F10BD000048
:1041B0002C0000201C0000203800002048000020B7
:1041C000340000206004002004ED00E010B516E08B
:1041D00000F09EFB0C48C068C468201D00F041FB45
:1041E0000A480068401E0949086009480068401EE6
:1041F0000749086000F0B6FB204600F00BF80448C1
:1042000000680028E4D110BD280500202C00002003
:104210002800002010B5044694F8510030B9206BF6
:1042200000F0BEFB204600F0BBFB1AE094F8510002
:10423000012803D1204600F0B3FB12E094F85100AE
:10424000022801D1012000E0002050B900BF502019
:1042500080F31188BFF34F8FBFF36F8F00BF00BF94
:10426000FEE710BD30B54FF44063174800F0070477
:104270002CB1C01D20F00700134C041B1B1B024671
:10428000124C22600024114D6C60D018083820F0C8
:1042900007000F4C206000240D4D2D686C600C4D04
:1042A0002D682C601146441A4C60094C24680C603F
:1042B000084D4C682C60084D4C682C604FF0004451
:1042C000064D2C6030BD0000500500205800002035
:1042D0006000002068000020640000206C000020C6
:1042E00000BFFFF773FF064800680128F9D94FF0B7
:1042F000805004490860BFF34F8FBFF36F8FF0E722
:104300006004002004ED00E02DE9FF5F81460F46C8
:104310009246DDE90E6B109CAAF10100216B01EBC6
:10432000800828F0070808F0070008B9012000E01D
:10433000002050B900BF502080F31188BFF34F8F89
:10434000BFF36F8F00BF00BFFEE7002507E0795D78
:1043500004F134004155785D00B902E06D1C102D68
:10436000F5D300BF002143200155072E00D30626B8
:10437000E66266640020A064201D00F0A0FA04F14B
:10438000180000F09CFA2461C6F10700A061646285
:104390000020E06484F8500049464046039A00F04B
:1043A00049F92060BBF1000F01D0CBF80040BDE817
:1043B000FF9F000010B5002407E004EB84010F4AC2
:1043C00002EB810000F06EFA641C072CF5D30C4858
:1043D00000F068FA0B4800F065FA0B4800F062FA4A
:1043E0000A4800F05FFA0A4800F05CFA04480949FC
:1043F000086004480849086010BD000060040020FF
:10440000EC040020000500201405002028050020F1
:104410003C050020200000202400002010B50146AB
:10442000164800E0006803688B42FBD302464368ED
:1044300013448B4204D143684C68234443600146D3
:104440000A464B6813440468A34211D10C4C03681C
:104450002468A34208D04B680468646823444B6016
:1044600003681B680B6005E0054B1B680B6001E0EF
:1044700003680B60884200D0016010BD5800002026
:10448000600000200A490968096809B9012100E0B3
:10449000002121B14FF0FF31064A116006E00449C6
:1044A0000968C968C868034A41681160704700001C
:1044B000200000204C0000200E480068401C08B975
:1044C000012000E0002050B900BF502080F3118887
:1044D000BFF34F8FBFF36F8F00BF00BFFEE700BF7A
:1044E000502080F31188BFF34F8FBFF36F8F00BF51
:1044F00000BFFEE7700000202DE9F04104464FF0B8
:10450000000800F09BFB4648006808B9FFF7AAFEC8
:1045100044480068204000286BD1D4B1083404F02E
:104520000700B0B104F00700C0F10800044404F033
:10453000070008B9012000E0002050B900BF50205A
:1045400080F31188BFF34F8FBFF36F8F00BF00BFA1
:10455000FEE7002C4DD034480068844249D8334EE1
:104560003046056801E02E462D686868A04202D2F8
:1045700028680028F7D12A480068854239D0306879
:1045800000F10808286830606868001B102819D9F5
:104590002F1907F0070008B9012000E0002050B9EA
:1045A00000BF502080F31188BFF34F8FBFF36F8F90
:1045B00000BF00BFFEE76868001B78606C6038468B
:1045C000FFF72CFF184968680968081A164908603F
:1045D0000846006816490968884203D212480068F4
:1045E000134908600F49686809680843686000203B
:1045F000286000F025FD08F0070008B9012000E060
:10460000002050B900BF502080F31188BFF34F8FB6
:10461000BFF36F8F00BF00BFFEE74046BDE8F081EB
:10462000600000206C000020640000205800002082
:1046300068000020001F4FF080730360001F21F00E
:1046400001030360001F034B03601438026020382D
:1046500070470000B944000800B5254B21F0004226
:1046600087B09A4203DC0022134600922BE0214BD4
:104670009A4208D140B94FF00100FBF774FEFFF7F2
:1046800008FC07B000BD03DBFFF700FC07B000BD6E
:1046900002AAFFF7EDF810F003014FF001000DD072
:1046A000012914D002291AD00DF1080C9CE80F0042
:1046B000FFF7A2FA07B081F0004100BD0DF1080C30
:1046C00000909CE80F00FFF76BFB07B000BD0DF1F9
:1046D000080C9CE80F00FFF78FFA07B000BD0DF142
:1046E000080C00909CE80F00FFF75AFBE2E700007F
:1046F000FB21E93F0000F07F10B504462078FE283A
:1047000002D1A07AFD2801D0012010BD607AC00935
:104710001A490876607AC0F3801118484176607AA9
:10472000C0F3401115488176607AC0F30011134838
:10473000C176607AC0F3C00010490877607AC0F390
:1047400080010E484177607AC0F340010B488177C1
:10475000607A00F001010948C1770146601C00F051
:104760000FF8012805D005490C31601D00F008F84C
:1047700008B10120C9E70020C7E70000741300203A
:104780002DE9FE4F81460C4699F8020099F8031076
:1047900040EA012000B2608099F8000099F8011009
:1047A00040EA012000B22080B4F90000002804DBB8
:1047B000B4F90000B0F5FA7F02DD0120BDE8FE8FFC
:1047C000208850B9B4F90200401C20B90020608054
:1047D000A0606060F2E70120F0E7B4F90200002871
:1047E00004DBB4F90200B0F5FA7F01DD0120E5E752
:1047F000B4F90200FFF7AAFB0290029801F058F901
:104800000746FFF755FB82468B46B4F9000001F0DE
:10481000BBFA074601F04CF952465B46CDE9000170
:1048200000F052FF054600F08DFC6060029801F038
:104830003FF90746FFF710FF05460E46B4F90000A2
:1048400001F0A2FA074601F033F92A463346CDE9D2
:10485000000100F039FF824600F074FCA0600020E7
:10486000ACE701460A69D1E901309860D1E901035A
:1048700058605068884201D1886850600020086103
:104880001068401E1060106870470000034B036002
:10489000034B0B604023136070470000880000202A
:1048A000DC00002000F1080141604FF0FF31816021
:1048B00000F10801C1600161002101607047002121
:1048C0000161704710B502460B685C1C0CB9106999
:1048D00007E002F1080000E04068446824689C4258
:1048E000FAD944684C604C68A160886041600A61F4
:1048F0001468641C146010BD42684A6093688B6041
:10490000936859609160086103685B1C036070479D
:1049100000BF502080F31188BFF34F8FBFF36F8F1C
:1049200000BF0E480068401C0C490860084600683B
:10493000012812D10A480068C0B208B9012000E07D
:10494000002050B900BF502080F31188BFF34F8F73
:10495000BFF36F8F00BF00BFFEE7704770000020FD
:1049600004ED00E00D48006850B900BF502080F30E
:104970001188BFF34F8FBFF36F8F00BF00BFFEE7FB
:1049800006480068401E054908600846006820B9CE
:10499000002080F3118800BF00BF70477000002026
:1049A00070B506463546002E3FD0083D2C461F49BF
:1049B00060680968084008B1012000E0002050B993
:1049C00000BF502080F31188BFF34F8FBFF36F8F6C
:1049D00000BF00BFFEE7206808B9012000E000200A
:1049E00050B900BF502080F31188BFF34F8FBFF341
:1049F0006F8F00BF00BFFEE70C4960680968084080
:104A000098B1206888B9094960680968884360607E
:104A100000F014F906496068096808440449086010
:104A20002046FFF7FBFC00F00BFB70BD6C00002084
:104A30006400002000204FF0E021086188610648F2
:104A400000684FF47A71B0FBF1F0401E4FF0E021A6
:104A500048610720086170471800002070B50446BF
:104A60000025D4B11248006808B9012000E00020F8
:104A700050B900BF502080F31188BFF34F8FBFF3B0
:104A80006F8F00BF00BFFEE700F0D8F8002120467E
:104A9000FFF7F6FA00F0D4FA05463DB94FF0805022
:104AA00004490860BFF34F8FBFF36F8F70BD0000E4
:104AB0005400002004ED00E02DE9F04704460F46C5
:104AC0004FF0000954B900BF502080F31188BFF3A4
:104AD0004F8FBFF36F8F00BF00BFFEE70FB1012004
:104AE00000E0002050B900BF502080F31188BFF3D0
:104AF0004F8FBFF36F8F00BF00BFFEE720480068F5
:104B000008B9012000E0002050B900BF502080F318
:104B10001188BFF34F8FBFF36F8F00BF00BFFEE759
:104B200000F08CF8174806682068C5192068B04264
:104B300007D92068A8420BD9B54209D94FF001091D
:104B400006E02068A84201D8B54201D94FF001091A
:104B50002560B9F1000F03D0A81B0021FFF790FAE0
:104B600000F06EFA8046B8F1000F07D14FF0805088
:104B700005490860BFF34F8FBFF36F8FBDE8F08723
:104B8000540000203000002004ED00E010B586B095
:104B900000200590049003AA04A905A8FFF776FE5B
:104BA0000022DDE904101346CDE9002102901CA18A
:104BB0001D48039A00F03EF91C4908600846006849
:104BC00008B1012400E00024012C15D100BF5020C1
:104BD00080F31188BFF34F8FBFF36F8F00BF4FF08B
:104BE000FF30134908600120124908600020124973
:104BF000086000F071F810E0601C08B1012000E0CE
:104C0000002050B900BF502080F31188BFF34F8FB0
:104C1000BFF36F8F00BF00BFFEE706B010BD0000FE
:104C200049444C4500000000E142000850000020CB
:104C30004C000020380000203000002002480068AE
:104C4000401C014908607047540000201D4800685E
:104C500018B101201C49086032E000201A490860A0
:104C60001A480068B0FA80F0C0F11F0101EB810022
:104C7000174A52F8200008B1012000E0002050B986
:104C800000BF502080F31188BFF34F8FBFF36F8FA9
:104C900000BF00BFFEE701EB81020D4B03EB82007A
:104CA00042685268426000F108024368934202D1B0
:104CB0004268526842604268D268064B1A6000BF80
:104CC0007047000054000020400000203400002005
:104CD000600400201C0000201CB5384908460078FC
:104CE0000190FF200A4610700846007800909DF859
:104CF000000000F0F0009DF80020904201D101205A
:104D000000E0002050B900BF502080F31188BFF3AD
:104D10004F8FBFF36F8F00BF00BFFEE79DF800000D
:104D200000F05000264A10700720264A106009E063
:104D300024480068401E234A10609DF80000400689
:104D4000000E00909DF8000000F080008028EFD059
:104D50001C480068C0F10700042801D1012000E0D0
:104D6000002050B900BF502080F31188BFF34F8F4F
:104D7000BFF36F8F00BF00BFFEE71248006800025C
:104D8000104A10601046008800F4E06010600B4A82
:104D9000019810700C48006840F470000A490860DF
:104DA0000846006840F070400860FFF743FE0020AE
:104DB00006490860FBF71CFA00201CBD00E400E077
:104DC000740000207800002020ED00E0700000203A
:104DD0002DE9FF4F85B0804689461746DDE912ABC5
:104DE000B800FFF789FB064656B15420FFF784FB55
:104DF00004460CB1266304E03046FFF7D1FD00E025
:104E000000248CB1002084F85100CDE900ABCDE93D
:104E100002403A4649464046089BFFF775FA20464D
:104E2000FFF77AF9012501E04FF0FF35284609B078
:104E3000BDE8F08F2DE9F04F85B0074688469146D2
:104E40009A46DDE90EB6109C0EB1012000E000206C
:104E500050B900BF502080F31188BFF34F8FBFF3CC
:104E60006F8F00BF00BFFEE70CB1012000E0002003
:104E700050B900BF502080F31188BFF34F8FBFF3AC
:104E80006F8F00BF00BFFEE75420039003985428A3
:104E900001D1012000E0002050B900BF502080F374
:104EA0001188BFF34F8FBFF36F8F00BF00BFFEE7C6
:104EB000B4B1AEB125462C462E63022085F85100D0
:104EC000002004A953464A46CDE900B1CDE902507D
:104ED00041463846FFF718FA2846FFF71DF901E06A
:104EE00000200490049805B0BDE8F08F01490868DF
:104EF00070470000300000202DE9F0414FF000081D
:104F000044480068002877D143480068451C42485F
:104F1000056015BB41480068006808B9012000E041
:104F2000002050B900BF502080F31188BFF34F8F8D
:104F3000BFF36F8F00BF00BFFEE7384807683848EF
:104F40000068364908603648076036480068401CEB
:104F500034490860FFF796FA00BF3348006885427D
:104F60003CD300BF2D480068006808B9012000E06C
:104F7000002020B14FF0FF302B4908602DE027487A
:104F80000068C068C4686668B54202D226480660F8
:104F900023E0201DFFF765FCA06A18B104F118009A
:104FA000FFF75FFC94F82C10012088401F49096826
:104FB00008431E490860E16A01EB81011C4A02EBCB
:104FC0008100211DFFF798FC1A49E06A0968C96A47
:104FD0008842C7D34FF00108C4E700BF15480068F6
:104FE000C06A00EB8000124951F82000012801D965
:104FF0004FF0010805E0FFE70F480068401C0E492C
:1050000008600E48006808B14FF001084046BDE84E
:10501000F08100005400002030000020200000201B
:1050200024000020440000204C0000203400002018
:10503000600400201C0000203C00002040000020F4
:1050400070B5002400263648006850B900BF5020D3
:1050500080F31188BFF34F8FBFF36F8F00BF00BF86
:10506000FEE7FFF755FC2E480068401E2C490860FB
:105070000846006800284FD12A48006800284BD015
:1050800024E02948C068C46804F11800FFF7E9FB70
:10509000201DFFF7E6FB94F82C10012088402349DF
:1050A0000968084321490860E16A01EB8101204A4F
:1050B00002EB8100211DFFF71FFC1E49E06A096811
:1050C000C96A884202D301201B490860164800685B
:1050D00008B9012000E000200028D2D00CB1FFF771
:1050E000D1F91648056865B100BFFFF705FF10B19B
:1050F0000120114908606D1E002DF6D100200F49D6
:1051000008600D48006838B1012630070C49086076
:10511000BFF34F8FBFF36F8FFFF724FC304670BD96
:10512000540000202C000020140500203400002032
:10513000600400201C000020400000203C000020F3
:1051400004ED00E021F00042A2F16052B2F5801FB0
:1051500001F0004328BFD2F17F6C0BD95FEA001C3D
:1051600043EAC20242EB507018BF704728BF20F0DC
:1051700001007047B2F5801FBCBF184670474FEA68
:10518000410C1CF5001F02D2084600F0DCBE70B5D1
:1051900000F044FB00000089FFF7F6BF4FF000402D
:1051A000A0F580007047000010B591EA030F48BFDA
:1051B00083F0004300F19A83841A71EB030C05D24B
:1051C000121943EB0C03001B61EB0C01DFF824E127
:1051D0004FEA1154A4EB135C1EEA430F18BF9EEA7A
:1051E000445F73D023EA0E03DCF1200E21EA045160
:1051F00043F4801332D322FA0CFE10EB0E0023FA94
:105200000CFE41EB0E01CCF1200E03FA0EFE10EB6A
:105210000E0051F10001B1F5801FCCF1200E32D209
:1052200001EB045112FA0EF2BDE8104058BF70476E
:10523000401C38BF5FEA420218BF7047002814BF05
:1052400020F0010041F100014FEA410313F5001F76
:1052500038BF7047A1F1C04100F02EBB012A43EBDB
:105260000302ACF1200CDCF11F0E32BF4FF0000E38
:1052700023FA0CF310EB030041EB0451B4EB115F84
:10528000D0D0A1EB045101F5801149085FEA30004C
:1052900001EB04510ED350F1000038BF12FA0EFE9C
:1052A00008D1BDE81040C9E7401C38BF5FEA4202A0
:1052B000CAD1C3E7BDE810404FEA410313F5001F10
:1052C00038BF7047A1F1C04100F0F6BA9EEA445FD2
:1052D00008D011EA5E0FBDE8104004BF01F00041A4
:1052E00000207047BDE8104070B500F097FA00BF8D
:1052F00064FBBE3E0000E0FF02494FF0000000F0FA
:105300009CBE00BF0000F87F2DE9C04130B4DFF83B
:10531000A0C23CEA111418BF3CEA131400F0EC8060
:1053200081EA03051CEA111444EAD57418BF1CEA8B
:10533000131500F0C780A4EB05044FF0004545EAC3
:10534000C12145EAC32341EA505143EA525304F1D3
:105350007F74994204F500344FEAC0204FEAC2221C
:1053600008BF904200F09C804FEA13650FF2401690
:10537000765D4FEA134506FB05F7C7F1807706FB1C
:1053800007F74FEAD737A7FB03687642C8F580389E
:10539000A7FB06CE38BFA8F1010807FB08E64FF0CF
:1053A000000EA6FB028CE6FB03CEDCF1000CCEF176
:1053B000004E38BFAEF1010EA6FB0C584FF00007AF
:1053C0004FF00005E6FB0E87A1FB08C6A0FB07CE49
:1053D00016EB0E0645F10005E1FB076515F1E04E01
:1053E0007EBFA4F580345FEA46066D4116F1800762
:1053F00045F100054FEA17274FEA066647EA0567B9
:10540000A6F1DE46B6F1805F4FEA15251FD9384672
:1054100024F0010C05EBC471BCF1FE6F01EB0C1123
:1054200002D8F0BCBDE8008124425CBF01F5801EBB
:105430009EEAC47F02D4F0BCBDE80081244238D487
:10544000F0BCA1F1C041BDE8004100F035BA4FEA1F
:10545000D22242EA43524FEAD323A7FB02864FEA05
:10546000D02040EA415007FB03661EEA0E0F4FEAC8
:10547000D12105FB026658BFA6EB0056B6EB0056DD
:105480004FEA520E4EEAC37E18EB0E0E56EB530E49
:10549000BDD518EB02085E417F1C55F10005B6E74B
:1054A0004FF480154FF000074FF000064FF0000852
:1054B000ADE7F0BC4FF0000001F1C04101F0004148
:1054C000BDE8008111EA0C1F0CEA131500D00CE0B6
:1054D00013EA0C1F00F025804FF00000F0BC81EAB9
:1054E000030101F00041BDE80081F0BCBDE80041CE
:1054F00081EA030100F0E0B9F0BCBDE8004170B5FD
:1055000000F08CF9097EFC3E00F007B881EA030147
:105510004FF0000001F00041704781EA030100F004
:10552000CBB9F0BCBDE800414FF000002149704705
:10553000FFFDFBF9F7F5F4F2F0EEEDEBE9E8E6E458
:10554000E3E1E0DEDDDBDAD8D7D5D4D3D1D0CFCDDF
:10555000CCCBCAC8C7C6C5C4C2C1C0BFBEBDBCBB18
:10556000BAB9B8B7B6B5B4B3B2B1B0AFAEADACAB13
:10557000AAA9A8A8A7A6A5A4A3A3A2A1A09F9F9EED
:105580009D9C9C9B9A99999897979695959493939F
:10559000929191908F8F8E8E8D8C8C8B8B8A898936
:1055A00088888787868585848483838282818180B9
:1055B0000000FF070000F87F4FEA41034FEA535312
:1055C000A3F58063D3F11E03C8BFD3F1210C0CDD1A
:1055D0004FF0004242EAC12242EA505232FA03FC42
:1055E0008CEAE17CACEBE1707047102BC4BF00206B
:1055F000704703F5787CBCF1FF3F04D06FF00042A8
:1056000082EA2100704770B500F008F949922480C1
:1056100000207047F2E700004FEA1153A3F58063C2
:10562000D3F11E03A8BFD3F1200C08DB4FF00042DA
:1056300042EAC12252EA505232FA03F0704709425C
:105640000BD4102BC4BF0020704703F5787CBCF14D
:10565000FF3F05D04FF0FF3070474FF0000070471C
:1056600070B500F0DBF800BF49922480002070473D
:10567000F0E710F0004248BF4042B0FA80F310FA61
:1056800003F10AD0C3F11D0303F580634FEA4150D3
:1056900002EB035202EBD12170474FF0000070473C
:1056A000B0FA80F310FA03F10AD0C3F11D0303F539
:1056B00080634FEA41504FEA035202EBD121704719
:1056C0004FF0000070470000DFF848C170B51CEAD9
:1056D000111E1EBF1CEA13159EEA0C0F95EA0C0F53
:1056E00000F06F8081EA030423EA4C134EEAD47E73
:1056F00021EA4C1141F4801143F48013AE44A1FB24
:10570000024CA0FB0365AEF17F7E361955EB0C050C
:10571000A1FB034C4CF10003A0FB021C16EB0C0692
:10572000654153F10003094218BF46F0010613F426
:10573000007F0BD14FEA03314FEA0530340341EAD1
:10574000155140EA16506FF003020AE04FEAC321F8
:105750004FEAC520F40241EA555140EA56506FF035
:10576000020202EB2E4201EB025585EACE710AD00D
:105770005FEA440C18BF24F0004450F1000041F1EE
:10578000000120EAD47040F2FE7C624500D270BD78
:10579000A84214BF4FF080444FF04044002E08BF91
:1057A0000024BEF1806FA8BFA1F1C041BDE87040E8
:1057B00080F282804FF0000001F1C04101F0004111
:1057C00070479EEA0C0F0CEA131518BF95EA0C0FF0
:1057D00006D04FF0000081EA030E0EF0004170BDCC
:1057E00000F01CF88900013E00F007B800F009B88D
:1057F0004FEA430C5FEA5C5C08D081EA030100F0E9
:105800005BB84FEA410C5FEA5C5CF6D14FF00000F8
:10581000014970470000FF070000F87F0EF1020EFB
:105820002EF0030E5EF8046B364205D4012A43EBDA
:10583000030515F5001F12D8012841EB010C1CF5DA
:10584000001F0CD80ED14FEAD17C15F5001F0CEBD0
:105850004C0C0CF1020C08BF4CEBD37C04E04FF075
:10586000080C01E04FEAD37C0CEB4C0526FA05F658
:1058700006F00706B6F1040C06D20EEB860CBDE866
:1058800070404CF0010C6047DFE80CF0090B02029D
:105890004FF000414FF00000A1F5002170BD194606
:1058A0001046012851EB010418BFD4F5001484BF41
:1058B000002001F0004170BD0808A0F500114FEA7A
:1058C0003101704791EA030F10B581F000413FF5B7
:1058D00073AC83F0004300F009B8000010B591EA02
:1058E000030F48BF83F000433FF566AC841A71EBA9
:1058F000030C07D212198CF0004C43EB0C03001B75
:1059000061EB0C01DFF8A4E14FEA1154A4EB135C46
:105910001EEA430F18BF9EEA445F00F0B08023EAFE
:105920006E03524221EA0451C3EB6E0338BF5B1E83
:10593000DCF1200E25D322FA0CFE10EB0E0043FA08
:105940000CFE41EB0E01CCF1200E03FA0EFE10EB23
:105950000E0051F10001CCF1200E29D412FA0EF202
:1059600001EB0451BDE8104058BF7047401C1CBFFC
:10597000B2F1004F704700280CBF491C20F0010015
:10598000704712EB020E43EB030218BF4FF0010EFB
:105990004EEA4202ACF1200CDCF11E0E54D943FA5F
:1059A0000CFE10EB0E0051F1FF31CCF11E0ED5D5DF
:1059B0000EF1010E12FA0EFE404141EB010101EB26
:1059C000445C5FEA5C5C10D910EBDE7001EB0451C3
:1059D00038BFBEF1004FBDE8104018BF7047002827
:1059E0000CBF491C20F00100704730D24FEAD42C84
:1059F00011F5001124F400641BD0B1FA81F20B3AC6
:105A0000A41AA41ED2F12003914030FA03F31943E3
:105A1000904001EBCC71002C01EB0451BDE810402B
:105A2000A8BF704701F1C0414FF0000001F00041F4
:105A30007047B0FA80F310FA03F100D110BDE41AF8
:105A4000173C4805C90AE4E701EB045110BD4910B1
:105A500001EB0451BDE810404FEA300002E04FF086
:105A6000000170474A0008BF0042F8D0B2F5001F9D
:105A700028BF704701F000414FF0000070479EEAD8
:105A8000445F07D011EA5E0FBDE8104004BF00215B
:105A900000207047BDE8104070B5FFF7BFFE00BFA3
:105AA00040DFF63E83F00041104670470000E0FF03
:105AB00043004FEAD30C4FEA3C0C43401FBF400762
:105AC0000CF1605113F0FE4F70471CF0006F03D1D2
:105AD00000200CF0004170470CF0004343EA507086
